:020000040800F2
:1000000078410020010100086F1E0008231E00082F
:100010006D1E0008FB090008F14200080000000006
:10002000000000000000000000000000512D00084A
:10003000FD09000800000000BD1E00080540000882
:100040001B0100081B0100081B0100081B01000820
:100050001B0100081B0100081B0100081B01000810
:100060001B0100081B0100081B0100081B01000800
:100070001B0100081B0100081B0100081B010008F0
:100080001B0100081B0100081B0100081B010008E0
:100090001B0100081B0100081B0100081B010008D0
:1000A0001B0100081B0100081B0100081B010008C0
:1000B0001B0100081B0100081B0100081B010008B0
:1000C0001B0100081B0100081B0100081B010008A0
:1000D0001B0100081B0100081B010008E942000881
:1000E000FF0900081B0100081B010008DFF80CD005
:1000F00000F020FC004800476544000878410020DB
:100100000648804706480047FEE7FEE7FEE7FEE7B1
:10011000FEE7FEE7FEE7FEE7FEE7FEE779400008C0
:10012000ED000008202A04DB203A21FA02F0002129
:10013000704721FA02F3D040C2F1200291400843F7
:100140001946704740EA01039B0703D009E008C93C
:10015000121F08C0042AFAD203E011F8013B00F88C
:10016000013B521EF9D27047D2B201E000F8012BD8
:10017000491EFBD270470022F6E710B513460A4627
:1001800004461946FFF7F0FF204610BD2DE9FF5F3A
:100190001D464FF0FF3BD5E9014691465F464FF0C3
:1001A0000008A9697F1C01988847296A8246884708
:1001B0000028F6D1BAF1FF3F0CD024F4C064002E21
:1001C00019DD600614D5BAF12B0F09D0BAF12D0F45
:1001D0000ED103E0584604B0BDE8F09F44F48064BB
:1001E000A9697F1C01988847761E8246002E02DD91
:1001F000BAF1300F03D0B9F1000F26D032E0A9696F
:10020000761E44F400747F1C019888478246002EB5
:1002100005DDBAF1780F06D0BAF1580F03D0B9F165
:10022000000F10D01EE0B9F1000F02D0B9F1100F8D
:1002300018D1A969761E24F400747F1C01988847A0
:100240008246102002E0082000E00A20814609E0F2
:1002500008FB0908A969761E44F400747F1C019804
:1002600088478246002E05DD4946504600F0B0FA28
:100270000028EDDAE96901988847A00502D46FF0FB
:100280000100A8E7E00725D1600613D5600502D577
:10029000C8F1000000E0404629680A1D2A6009688C
:1002A000220501D5087015E0220701D5088011E06C
:1002B00008600FE02868011D29600068210502D54B
:1002C00080F8008006E0210702D5A0F8008001E058
:1002D000C0F8008038467EE72DE9FE4F804681EA6F
:1002E0000300C00F0C46009021F0004123F00045B0
:1002F000B8EB0200A94105D24046214690461C4673
:100300000B46024623F00040104347D0270DC7F3A9
:100310000A00C3F30A510290401A019040286BDA98
:10032000C3F3130040F4801B0098924620B10023D1
:10033000D2EB030A63EB0B0B01985946C0F1400264
:10034000504600F024FA06460D4650465946019A9A
:1003500000F02CFA10EB08006141002487EA1152EA
:1003600084EAE7731A4340D0009A62B3019A012AE3
:100370004FEA075215DC001B61EB02014FF000420F
:1003800002EA0752CDE90042001C41F580113246D5
:100390002B4600F03AFA03B0BDE8F08F4046214604
:1003A000F9E7001B61EB0201001C41F58013001806
:1003B0005B412018A2F5001747EB030140EAD57016
:1003C000B6196D4111E06D084FEA360645EAC07571
:1003D0004FEA0752001B61EB0201001C41F580113E
:1003E00049084FEA30000019514132462B4603B00C
:1003F000BDE8F04F00F0FAB9009801224000002358
:10040000D0EB020263EBE073009821464FEAE07400
:10041000B8EB000061EB0401E9E783F000435BE720
:1004200081F0004158E72DE9FE4F81EA030404F012
:10043000004421F0004100944FF0000B23F00043F2
:1004400050EA01045ED052EA03045BD0C3F30A54BD
:10045000C1F30A552C44A4F2F3340194A0FB0254D6
:10046000C1F3130141F48011C3F3130343F4801368
:1004700001FB024400FB034E840A970A44EA8154BC
:1004800047EA8357A4FB076802958D0A05FB078599
:100490004FEA932C04FB0C542705029D4FEA0658A3
:1004A00047EA1637B5EB08056EEB070C870E920E80
:1004B00047EA811742EA8312A7FB0201B6EB0B0160
:1004C00064EB00042B0D43EA0C335E1844EB1C5024
:1004D000DA465146E7FB0201C5F313044FEA0B333A
:1004E00043EA14534FEA0432019C43EA0603A4F1A1
:1004F0000C040294009CCDE900B400F086F903B02E
:10050000BDE8F08F00200146F9E72DE9F04D81EAC2
:10051000030404F0004B21F0004514464FF0000A9C
:1005200023F0004150EA050220D054EA01021DD018
:10053000C5F30A570246C5F31303C1F31300C1F311
:100540000A5640F4801543F48013A7EB0608101BED
:10055000D64608F2FD3873EB050002D308F1010816
:1005600001E092185B41B8F1000F03DA0020014668
:10057000BDE8F08D00204FF48011064684460EE061
:10058000171B73EB050705D3121B63EB050306432B
:100590004CEA010C49084FEA300092185B4150EADE
:1005A0000107EDD152EA030012D082EA040083EA87
:1005B0000501084305D0101BAB4106D201220023E0
:1005C00006E000224FF0004302E06FF001025310FA
:1005D0001AEB06004CEB085110EB0A0041EB0B0143
:1005E000BDE8F04D00F002B930B5041E71F1000411
:1005F00004DB4FF00044404264EB0101141E73F130
:10060000000405DB1C464FF00043524263EB040339
:10061000101A8B4101D3012030BD002030BD30B510
:10062000041E71F1000404DB4FF00044404264EB0F
:100630000101141E73F1000405DB1C464FF000435A
:10064000524263EB0403801A994101D2012030BD6C
:10065000002030BD0EB5C10F80EAE0700844CA0723
:10066000002140F233438DE80E000A460B4600F0AD
:10067000CCF803B000BD0EB540F233410291002129
:10068000CDE900110A460B4600F0BFF803B000BDEB
:1006900070B5C1F30A5201F000450024C1F3130103
:1006A00040F2FF3341F480119A4201DA002070BD1C
:1006B00040F233439A42A2F2334203DC5242FFF744
:1006C00031FD00E090402C43F1D0404270BDC1F3B9
:1006D0000A5210B5C1F3130140F2FF3341F4801107
:1006E0009A4201DA002010BD40F233439A42A2F24E
:1006F000334203DC5242FFF715FD10BD904010BDA0
:1007000030B50B46014600202022012409E021FAE1
:1007100002F59D4205D303FA02F5491B04FA02F5DE
:100720002844151EA2F10102F1DC30BD2DE9F05F75
:100730000546002092469B46884606468146402450
:100740001BE02846414647462246FFF7EBFC53464E
:100750005A46C01A914110D311461846224600F05D
:1007600016F82D1A67EB01084F462246012000219A
:1007700000F00DF817EB00094E41201EA4F1010412
:10078000DFDC484631462A464346BDE8F09F202A32
:1007900004DB203A00FA02F1002070479140C2F1D8
:1007A000200320FA03F3194390407047202A06DB08
:1007B000CB17203A41FA02F043EAE07306E041FA2F
:1007C00002F3D040C2F1200291400843194670471D
:1007D0003A2800D2303820F02002412A01D3A2F179
:1007E0003700884201D34FF0FF30704710B5141E18
:1007F00073F1000408DA401C41F1000192185B41DA
:100800001A4301D120F0010010BD2DE9F04D9246B0
:100810009B4611B1B1FA81F202E0B0FA80F22032C7
:100820009046FFF7B4FF04460F4640EA0A0041EA4B
:100830000B0153465A46084313D0114653EA0100B0
:1008400019D0C8F140025046FFF76CFC05460E4631
:10085000504659464246FFF79AFF084305D001200B
:1008600004E020463946BDE8F08D0020054346EA05
:10087000E0762C4337430A986305E40AA0EB0800AE
:100880000022FD0A44EA47540A3002D500200146FE
:10089000E9E7010510196941DDE9084500196941D9
:1008A000BDE8F04DA2E770B521F0004303430CD042
:1008B000C1F30A550024D5EB040564EB0403D617F5
:1008C000AD1AB34102DB0020014670BD201841EB98
:1008D000025170BDC1F30A52C1F3130140F2FF335C
:1008E00041F480119A4202DA00200146704740F23A
:1008F00033439A42A2F2334202DC5242FFF712BC67
:10090000FFF745BF30B5041E71F1000404DB4FF062
:100910000044404264EB0101141E73F1000405DB46
:100920001C464FF00043524263EB0403994208BF58
:10093000904230BD064C074D06E0E06840F00103F0
:1009400094E8070098471034AC42F6D3FFF7D2FB87
:10095000B8BF0008D8BF00082DE9F04D00231A46A3
:100960001B1A8A4103DB00200146BDE8F08DC1F36C
:100970000A52C1F3130141F480154FF0000BD10767
:1009800002D100186D41521E0027044640F2FF11AB
:10099000384601EB620A3E468046024600204FF48C
:1009A0008011FFF7BFFBC2197141BB1846EB010074
:1009B000B4EB030C75EB000C04D3E41A65EB0005F3
:1009C00017460E46241908F101006D41804634286F
:1009D000E3DDF91946EB0600091BA84103D24FF0ED
:1009E000FF32134601E0002213461BEB070046EBE3
:1009F0000A51BDE8F04DFFF7F9BEFEE770474FF42E
:100A0000004000F0CFB8EFF3108072B6FEE720F0A0
:100A1000FF01002918BF0121CA0004324FF2F00380
:100A2000184208BFCA004CF6CC4108424AF6AA2137
:100A300018BF0232084018BF01201044C0B27047EE
:100A400080B5FFF7E4FF134951F8200010B1BDE86D
:100A50008040004780BD00BF80B500F07BF980BDBD
:100A6000B3B170B508461D4614460E46FFF7CFFFDA
:100A7000084941F82050304601F0D4F921460022BF
:100A8000054600F0C7FA2846BDE8704000F0B4BA49
:100A9000704700BF901C0020D2B200F060B910B5C2
:100AA00090F82110022912D10168D0E90F230C68B7
:100AB00024F00E040C600C6824F001040C60012189
:100AC00001FA03F3536080F82110002102E00421B1
:100AD00081630121002280F82020084610BD00001B
:100AE000B0B590F8211002291CD103681F4C196879
:100AF000012221F00E0119601968A34221F00101C1
:100B00001960194912D01A4CA34211D0194CA342B2
:100B100010D0194CA34210D0184CA34210D14FF45E
:100B2000803415E00421816301211BE001240FE0E2
:100B300010240DE04FF480740AE04FF4805407E075
:100B400001F168054FF08074AB4208BF4FF4801488
:100B50000C60002180F8201080F82120426B0AB13F
:100B6000904700210846B0BD040002400800024042
:100B70001C00024030000240440002405800024085
:100B8000B0B5044600F0F0F80546F248611C007864
:100B900018BF044400F0E8F8401BA042FAD3B0BDEF
:100BA000FFF74EBF03490A68024214BF086070474E
:100BB000FFF7F6BF140401402DE9FC4F594A042306
:100BC0004FF0000B4FF001084FF00F0E4FF00009EF
:100BD0000025904208BF032300930B6833FA05F207
:100BE00008BFBDE8FC8F08FA05F2134200F09680BA
:100BF0004F68032F16D9112F24D0122F26D04C4B1B
:100C00009F4213D04B4B9F4210D04B4B9F420DD075
:100C10004A4B9F420AD04A4B9F4207D0494B9F42C2
:100C200004D020E0DFE807F00216191D8B6833B10D
:100C3000012B14BF426102614FF0080913E04FF02D
:100C4000040910E0CB6803F104090CE0CB6803F160
:100C50000C0908E0D1F80C9005E0CB6803F1080915
:100C600001E04FF000095B460646082D28BF203BF7
:100C700028BF043637680EFA03F427EA040409FA99
:100C800003F323433360CB79DB0647D5D84B264E9D
:100C90001C461B68A6F57E7643F00103236023689B
:100CA0000BF00C0C03F001030193019CAC0856F807
:100CB00024700EFA0CF327EA030A234B984208D05B
:100CC000224B984207D0224B9842009B08BF022338
:100CD00002E0002300E0012303FA0CF343EA0A03D5
:100CE00046F824304F68104CFB02A36854BF93436E
:100CF00013430E4EA360BB02336854BF93431343A8
:100D00003360BB03636854BF934313436360FB03C7
:100D1000236854BF23EA02021A4322600BF1040B3A
:100D200001355AE700140140000401400C04014061
:100D3000000011100000121000002110000022100D
:100D4000000031100000321000080140000C01408A
:100D5000001001408068084018BF01207047002A39
:100D600008BF0904016170477B480068704700BFF5
:100D7000F8B560B3044690F83D0028B9002084F827
:100D80003C00204600F0B0F8242084F83D002068A4
:100D9000016821F001010160016841F40041016036
:100DA000016821F40041016000F0FEF949494A4B15
:100DB000002288424FF0000138BF0121984238BF1D
:100DC00001226368454DAB4238BF0A460AB1012093
:100DD000F8BD4349434EB0FBF1F22168B3424D6880
:100DE00025F03F0545EA02054D600D6A25F03F05F7
:100DF00011D801322A430A625A000138B0FBF2F0DE
:100E00004CF6FF7301306FF31F30042898BF0420A5
:100E1000CA699A4337E04FF4967672434FF47A7674
:100E2000B2FBF6F2013801322A430A62CA694CF673
:100E3000FF75AA43A56845B119265E43B0FBF6F6D7
:100E40000427013667F31F3606E003EB4306B0FBC9
:100E5000F6F601366FF31F36360509D055B1192560
:100E60006B43B0FBF3F00423013063F31F3008E061
:100E7000012008E003EB4303B0FBF3F001306FF314
:100E80001F3040F400401043C861E0690A6804F173
:100E90000C0622F0C0021043226A104308608868E2
:100EA00048F2FF3290436CCE184310438860C86804
:100EB00020F0FF0028433043C860086840F001007C
:100EC000086000202021206484F83D10206384F80D
:100ED0003E00F8BD80841E0000093D00A18601008F
:100EE00040420F00A086010010B586B00021CDE978
:100EF0000411CDE902110168114881421DD13C4C19
:100F000000F53840216841F008012160216801F0B6
:100F1000080101910321059112210391C021029141
:100F2000019902A9FFF748FE606840F40010606074
:100F3000606800F400100190019806B010BD00BF79
:100F4000005400401B48044900780A6810440860B7
:100F5000704700BF34000020703D002080B58F48EE
:100F6000016841F010010160032000F06FF80F20CC
:100F700000F004F800F020F8002080BD70B50D4EA0
:100F8000044630784FF47A71B1FBF0F0904909686B
:100F9000B1FBF0F000F01EFD01250F2C08D838B988
:100FA0004FF0FF3021460022002500F033F8746036
:100FB000284670BD3400002082B00D48022201682E
:100FC00041F001010160016801F001010191019905
:100FD000416841F080514160406800F080500090CD
:100FE00000980448016862F31A61016002B070471A
:100FF0001810024004000140002808D400F01F012E
:10100000012202FA01F1024A400942F82010704719
:1010100000E100E0B0B5134B4FF0FF351B68C3F3A0
:101020000223DC1E83F0070338BF0024042B28BFF3
:10103000042305FA03F3994305FA04F3A1409A4304
:101040001143BDE8B04003F0E9B900BF05494FF6D0
:10105000FF030A681A4060F30A220348104308603D
:10106000704700BF0CED00E00000FA052DE9F843E1
:10107000002800F09080884648490446086800F03F
:10108000070040450AD2086820F0070040EA08003F
:101090000860086800F0070040457CD120685D4B7F
:1010A0008946810711D5410703D5196841F4E061EC
:1010B0001960010703D5196841F460511960A168EE
:1010C0001A6822F0F00211431960C0072BD0606843
:1010D000012804D153F8041C890309D45BE053F8B8
:1010E000041C022802D1890102D454E0890752D598
:1010F00019681D4621F0030108431860FFF734FE0C
:10110000064641F28837606829682B4601F00C01D9
:10111000B1EB800F07D0FFF727FE801BB842F2D952
:101120000320BDE8F883D9F8000000F0070040452F
:101130000DD9D9F8000020F0070040EA0800C9F8EE
:101140000000D9F8000000F00700404523D12068D6
:10115000410705D5E1681A6822F4E062114319607D
:10116000000706D52069196821F4605141EAC000E2
:1011700018601C4600F030F82168094AC1F30311D9
:10118000515CC840F649086006480068FFF7F6FE63
:101190000020BDE8F8830120BDE8F883002002406C
:1011A000A85C000838000020ED481A49006809686A
:1011B000084AC1F30221515CC8407047E84815490C
:1011C00000680968034AC1F3C221515CC8407047F6
:1011D000D0000020B85C000810B50E490E480A681F
:1011E00002F00C03042B0BD0082B08D1C2F383436D
:1011F0000AA4E35CD20304D40D48584310BD0D4843
:1012000010BD096809A2C1F34041515C5843B0FBCD
:10121000F1F010BD04100240001BB70002030405EA
:10122000060708090A0B0C0D0E0F10100102000032
:1012300000093D0000127A002DE9FC41002800F071
:10124000CC8004460078C44EC0074AD0706800F0D5
:101250000C00042817D0706800F00C00082802D198
:101260007068C0030FD4606898B1B0F5803F06D0B5
:101270003168B0F5A02F21D141F480203060306872
:1012800040F4803020E0306880032AD5606840BB9D
:10129000A3E0306820F480303060306820F4802093
:1012A0003060FFF761FD05463068800319D5FFF710
:1012B0005BFD411B03206429F6D94AE121F480300B
:1012C0003060306820F480203060FFF74DFD054627
:1012D0003068800305D4FFF747FD401B6428F7D929
:1012E0000AE1207880072CD5706810F00C0F07D029
:1012F000706800F00C00082809D17068C00306D49B
:101300003068800716D52069012813D065E021696F
:101310009248002900F0B58001210160FFF724FD0B
:1013200005463068800705D4FFF71EFD401B0228E4
:10133000F7D9E1E06069316821F0F80141EAC000C5
:101340003060207800072ED5A06978B1834801214C
:10135000C0F88014FFF708FD0546706A800715D4B1
:10136000FFF702FD401B0228F7D9C5E07B480021AA
:10137000C0F88014FFF7F8FC0546706A800712D5A4
:10138000FFF7F2FC401B0228F7D9B5E074484FF490
:10139000FA510068B0FBF1F0019000BF0198411EC6
:1013A00000280191F9D12078400719D4E769002F6E
:1013B00000F0CE80706800F00C00082843D1012FA7
:1013C0000BD0216A706800F480328A4205D1616ACC
:1013D00000F47010884200F0BB800120BDE8FC8161
:1013E000F069C0000BD4F0694FF0010840F0805064
:1013F000F061F06900F080500090009801E04FF03B
:101400000008584F3868C0050FD4386840F4807021
:101410003860FFF7A9FC05463868C00505D4FFF71A
:10142000A3FC401B6428F7D966E0E068C8B3012834
:1014300005D0316A05284BD141F004003062306A92
:1014400040F001004AE04549002088460866FFF761
:101450008BFC0546022F0AD147463068800157D5DC
:10146000FFF782FC411B03200229F6D971E03068A6
:1014700080016DD5FFF778FC411B03200229F6D9C6
:1014800067E000210160FFF76FFC054630688007C8
:101490007FF557AFFFF768FC411B03200229F5D900
:1014A00057E0306A20F001003062306A20F004001A
:1014B0003062FFF759FC054641F28837306A8007F1
:1014C0001DD5FFF751FC411B0320B942F6D940E07E
:1014D00021F001003062306A20F004003062FFF732
:1014E00043FC054641F28837306A800707D4FFF78E
:1014F0003BFC401BB842F7D90320BDE8FC81B8F1A2
:10150000000F3FF453AFF06920F08050F0614DE7D9
:10151000206AB0F5803F05D1A168726822F40032DC
:1015200011437160616A0843716821F474110843C2
:10153000706001203866FFF717FC044630688001B0
:1015400006D4FFF711FC011B03200229F6D900E0A5
:101550000020BDE8FC8100BF0010024000004242B4
:10156000D000002000700040F8B538B10446406A51
:1015700030B10020206104F1140007E001254AE0A9
:101580006068B0F5827F03D004F11C000021016087
:101590000025A56294F8510000284FF0000007D103
:1015A000204684F8505000F039F8A06A00F400504A
:1015B000022184F8511094E84E0002F482720F6800
:1015C00003F4044327F040070F601A4406F4006355
:1015D0001A44236903F002031A44636903F0010308
:1015E0001A44A36903F400763244E66906F038062B
:1015F0003244266A06F08006324310430860042015
:1016000000EA13404860C86920F40060C861012006
:10161000656584F851002846F8BD000070B586B0B5
:101620000026CDE90466CDE90266174C006804F592
:101630002051884225D1154802AD016841F48051FE
:101640000160016801F4805101910199016841F044
:10165000040101600068294600F0040001900320A5
:10166000059002200390A020029001982046FFF7E9
:10167000A3FA4020CDE90366029020462946FFF7F1
:101680009BFA06B070BD00BF000801401810024070
:101690002DE9FC41044690F85000012804BF0220C7
:1016A000BDE8FC8101201D4616460F4684F8500017
:1016B000FFF75AFB804694F85100012853D10120CE
:1016C000002F51D0002E4FD0032084F8510000206D
:1016D0006065E686A6862763A087A063C4E910003C
:1016E000E087A1682068B1F5004F07D1016821F0BB
:1016F00040010160016841F48041016001684906D0
:1017000003D4016841F0400101606168731EE26822
:10171000B1FA81F1B3FA83F349095B091943B2F5D0
:10172000006F26D131B137F8021BC1602763E08E0C
:101730000138E0866E1CE08EF0B32068816889076E
:1017400008D4FFF711FB002EF5D0A0EB0800A8424B
:10175000F1D34BE0216B31F8022BC2602163E08EA4
:101760000138E086E7E70220002184F85010BDE848
:10177000FC8139B139780173206B01302063E08E30
:101780000138E0866E1CE08EB0B120688168890760
:1017900008D4FFF7E9FA002EF5D0A0EB0800A84224
:1017A000F1D323E0216B09780173206B01302063B2
:1017B000E08E0138E086E6E720462946424601F001
:1017C0005BFA08B120206065A06838B9002001905C
:1017D0002068C1680191806801900198616D0120C5
:1017E0000029C1D184F851000020BDE7012084F810
:1017F00051000320B8E72DE9F843044690F8500063
:10180000012804BF0220BDE8F88301201E461546CA
:101810000F4684F85000FFF7A7FA94F8511081465C
:10182000012969D10120002F00F0B280002D00F0C5
:10183000AF80002E00F0AC8094F8510004281CBF4B
:10184000052084F8510000206065E687E686A563E0
:10185000A6872763C4E91000A686206801684906A8
:1018600003D4016841F0400101606168731EE268C1
:10187000B1FA81F1B3FA83F3DDF8208049095B09FD
:101880001943B2F5006F45D131B137F8021BC16081
:101890002763E08E0138E086012608F10105E08E1D
:1018A00010B9E08F002878D02068816889070CD5AE
:1018B000E18E012E09D141B1216B002631F8022BB6
:1018C000C2602163E18E0139E1868168C9070AD0CF
:1018D000E18F41B1A16BC068012621F8020BA16321
:1018E000E08F0138E087FFF73FFA002DD7D0A0EB5B
:1018F00009004045D3D347E06068B0F5827F07D147
:101900000220042944D1A16800293FF48BAF3FE0B5
:1019100002203DE039B139780173206B013020633A
:10192000E08E0138E086012608F10105E08E08B955
:10193000E08F90B32068816889070ED5E18E012E73
:101940000BD151B1216B002609780173216B2068FE
:1019500001312163E18E0139E1868168C9070BD02D
:10196000E18F49B1A16BC06801260870A06B0130FE
:10197000A063E08F0138E087FFF7F6F9002DD5D09E
:10198000A0EB09004045D1D3012084F85100032089
:10199000002184F85010BDE8F883204641464A46AD
:1019A00001F06AF918B1202060650120F0E7A06815
:1019B00038B9002000902068C168009180680090CC
:1019C0000098616D01200029E2D184F851000020C7
:1019D000DEE70000411E0020B0EB116F1CBF0120AC
:1019E0007047044AF023516003490B70072190604F
:1019F0001160704710E000E023ED00E07047704791
:101A0000F8B5044600680168C268466901F02F0510
:101A100002F02003202D05D123B12046BDE8F84077
:101A200002F087BB5FEA017E08D006F0010686F06F
:101A3000010712F4907F55D1002F53D01140CA06F0
:101A4000226B3DD5012A3BD1002100910168009114
:101A50004168009100994169490600F19280E18D49
:101A6000A28DE38D002B00F00781511A0A0401D1E9
:101A700002E1206850E8030F226820F4907042E8E9
:101A80000303002BF5D1206850E8050F226820F0F1
:101A9000010042E80503002BF5D1202084F8420024
:101AA00000202063206850E8030F226820F0100017
:101AB00042E80303002BF5D1022089B26063A3E062
:101AC0000A0600F1A680490640F1D680C16821F0DF
:101AD0004001C160202084F841002046BDE8F84064
:101AE00000F09EB9CD0718BF12F4807503D0656C65
:101AF00045F00105656401F004054FF0010C8CEA26
:101B000095053D4303D1656C45F00205656401F020
:101B100002058CEA55053D4303D1656C45F004058B
:101B20006564334318BF0123BEF1000F04D51BB118
:101B3000636C43F008036364636C002B00F09C80CB
:101B40001140890603D5204602F0F3FA2068406967
:101B5000616C00F0400001F00801401869D0204697
:101B600002F0C0FA20684169490674D550E8050FB3
:101B7000216820F0400041E80502002A5FD020687B
:101B8000F4E7E26B11684B689DB2002D74D0A18D13
:101B90008D4271D2E3859269202A30D050E8030F3C
:101BA000216820F4807041E803020AB12068F5E75B
:101BB000206850E8050F216820F0010041E8050287
:101BC000002AF5D1206850E8050F216820F0400078
:101BD00041E80502002AF5D1202084F842000020C7
:101BE0002063206850E8030F216820F0100041E8CE
:101BF0000302002AF5D1E06BFEF751FFA18D022010
:101C00006063E08D081A81B22046BDE8F840FFF716
:101C1000F5BE94F8411021292ED1A168B1F5805F5D
:101C200001D12169E1B1216A4A1C2262097841602F
:101C30001DE02046FFF7E3FE00206064F8BDE06B86
:101C400048B112494163FEF74BFFA8B1E06B416B0D
:101C5000BDE8F84008472046BDE8F840FFF7CFBE92
:101C6000216A31F8022B6FF35F2221624260E18C1E
:101C70000139E184090400D0F8BDC16821F0800178
:101C8000C160C16841F04001C160F8BDD9400008A1
:101C900058B310B5044690F8410028B9002084F8E4
:101CA0004000204600F024F8242084F841002068F9
:101CB000C16821F40051C160204602F09DFA2068FD
:101CC000016921F490410161416921F02A014161DA
:101CD000C16841F40051C16000202021606484F893
:101CE000411084F84210606310BD0120704700006D
:101CF00070B586B00026CDE90466CDE902661C4CBD
:101D00000068A4F5444188422FD11A4802AD4168C9
:101D100041F480214160416801F4802101910199E1
:101D2000016841F0080101600068294600F00800E0
:101D3000019003200590022003904FF480600290F0
:101D400001982046FEF738FF4FF40060CDE90366A6
:101D5000029020462946FEF72FFF2720002100226F
:101D6000FFF758F92720FFF747F906B070BD00BF0D
:101D7000000C01401810024070472DE9F84304465A
:101D800090F8410020281CBF0220BDE8F883884657
:101D90000120002942D01746002A3FD04FF0000909
:101DA00021201D46C4F8449084F84100FEF7DCFF72
:101DB000E784A7840646A068B0F5805F05D127694F
:101DC000002F0CBFC146474600E04746E08CB8B143
:101DD0002046802132462B4602F04EFAB8B927B190
:101DE00017F8010B2168486006E039F8021B2068EB
:101DF0006FF35F2141600027E08C0138E084E5E764
:101E00002046402132462B4602F036FA10B103201C
:101E1000BDE8F883202084F841000020BDE8F88365
:101E20007047FEE7411E07290ED9102804BF0A207B
:101E30007047202806D0402804D0802818BFB0F56D
:101E4000807F0AD1172070470620DFE801F00A04DE
:101E5000090B0909090D07207047B0F5007FF1D083
:101E6000282070470820704709207047FEE7FEE7EA
:101E7000DF48012141707047032804D80449C0009D
:101E800021FA00F000E00220D9494870704700BFF5
:101E900002010201D648052141707047D44807214C
:101EA00041707047F248062141707047F0480821A0
:101EB00041707047EE48092141707047704700003B
:101EC0002DE9FE4FDFF8F88CD8F82CA0BAF1010FFD
:101ED000C0F29980F048D8E90623C16C806CFEF707
:101EE000A2FA4A4B00220026FEF70FFB04460D46DD
:101EF000B0B282450DDD08EBC007D7E90C012246E0
:101F00002B46FEF78AFAC7F82808C7F82C180136BE
:101F1000EEE708F50360CDE901A0AAF10108B8F1E8
:101F2000010F21DBDDF808B04FF00109CA4519D0D7
:101F30005BE90245DBE900672046294632463B461D
:101F4000FEF76DFB48B1204629464BE90267FEF7D4
:101F50009FFBFEF77FFBCBE900010BF1080B09F1BA
:101F60000109E3E7C246D8E70199022091FBF0F0AE
:101F7000C04FC90707EBC000D0F82858D0F82C484C
:101F8000B8460DD1D0F82028D0F82438284621466C
:101F9000FEF7A2F91E4B0022FEF745FA05460C4655
:101FA0001C4BC34F284621460022FEF71DFB38B9C3
:101FB000387D797D2A46234600F0E2FE05460C4630
:101FC000042087F8580028462146002200230026D6
:101FD000FEF70AFB10B9C8E9086614E097F8570045
:101FE000022805D0012806D068B9C8E908540AE0DB
:101FF000094A0A4B01E00A4A0A4B28462146FEF7E5
:1020000012FAC8E908010020BDE8FE8F00408F40A9
:102010000000E03F00005940A45913EA6D5C443FC2
:10202000567DAEB6627FF13F80B5FFF749FF91481C
:102030000021816080BD00BFF8B58F49184F096845
:102040000446381D88479A4D012602200D2185F847
:10205000436085F8384085F8450085F840101149FF
:10206000E96344F2200129850C21A5F82510687741
:1020700028744FF426600C49AE75A8824FF080504A
:1020800085F85960C5E9140139780848FEF773F8F6
:10209000784800218182C160C0E900116E80F8BDDE
:1020A00008000020809C2B8F1E003C00901B00200D
:1020B000F8B5714D0446D5E90D71002088477C4E76
:1020C00096F84300B847022C10D0012C18BFF8BD79
:1020D0000A2086F82700012070773074AC6940F63A
:1020E000910001F00BFA40F0C0015BE0D5E9132448
:1020F00000200021904796F94000E021A047707D24
:102100000A2817D0182829D0262842D1307D6FF010
:1021100004012B4A2B4C01EB101152F8313034F8EA
:10212000114002EBC1014968A6F85C40C6E91231D2
:102130000A2126E0307D6FF004011D4A1D4C01EBA1
:10214000101152F8313034F8114002EBC1014968E6
:10215000A6F85C40C6E912310C2112E0307D6FF028
:102160000401154A154C01EB101152F8313034F8C6
:10217000114002EBC1014968A6F85C40C6E9123182
:102180000B21A1EB10104FF4C07121FA00F0A6F85A
:102190005A00E86EAC69804740F6910001F0AEF954
:1021A00000F03F0140F691002246BDE8F84010479C
:1021B000485D0008D85C0008185D0008CC5C000889
:1021C000E85C0008C05C0008B0B5F748F54C002595
:1021D00005618582C0E9005585601830112165715F
:1021E0006570FDF7C8FF2581A4F80350B0BD00BF9E
:1021F000000100202DE9F041EA4CA07801281CBF25
:102200000020BDE8F08102206071E078F0B900267E
:102210000120E07084F85860DFF8A48994F8450044
:10222000C8E90666C8F80060FFF742FFDF4894F887
:102230003870456D4FF6FF704FF6FF710022002396
:10224000A8470FB9C8E908660320607001F048FA92
:1022500094F83800012803D028B900F041F804E0D0
:1022600000F0ACF901E000F009FB6079BDE8F08115
:102270000001002060010020785D000810B5C94C05
:1022800084F8421084F84100A275617520750298A7
:1022900084F84000E36310BD0001002010B5C14C7C
:1022A00084F85920216584F8560084F8573010BD11
:1022B0000001002080B5FFF7B7FE06494860C16AFB
:1022C00031B1D0E9082304A0BDE8804002F06EBA25
:1022D00080BD00BFD800002025662C200000000033
:1022E0002DE9F04F85B0AF4C6078092800F22981C4
:1022F000DFE810F00A001A005A006900B100C500BA
:102300001F0127012401270194F85800012840F0FB
:102310001A812078012840F0168104206070A248BC
:102320000169013101610EE1A048D0F8A410D0F894
:102330000451D0F80C9103A88847DFF884889DF8F1
:102340000D20D8F82C004FF4815140444254002015
:10235000A847D8F82C2008F1300747F8320007EBDF
:10236000C200257D667D4160C84742B2284631469D
:1023700000F04AFFD8F82C60D8F8049007EBC605A7
:1023800057F836206B68FDF7A7FF47F836000420A2
:102390006070701CB4F85A20C8F82C0009F10100D4
:1023A000C8F804006960BFE0E068411C2828E160CB
:1023B000C0F0CC80032060700020E06005B0BDE874
:1023C000F04F01F05BBEA078012840F0BC800120F6
:1023D000DFF8EC9704F81D0F4FF0000A072184F88E
:1023E0003BA0A172D9F80010DFF8D8870131C9F8F5
:1023F00000102546D8E90F1705F80D0DD8E9116B27
:10240000012088472846B8472046B047D4F81F0027
:10241000D84724F815AC04F819AC6648D4F8331042
:1024200094F83C2080F804A0C170427194F83920DF
:10243000D8F8643082710A0A82700A0C090E427060
:102440000170A17A5A4AC9E901AA984744F811AC27
:1024500004F81CAC77E02078012874D100252570A1
:1024600020890130208194F8561080B2884240F2D1
:10247000838001F003FE0320E570607162E094F850
:10248000580000285DD1DFF83CA7F64DF64EDAF88B
:10249000603028463146FF2298473078002850D0D7
:1024A000022604F81D6F0120DFF8149784F83B0022
:1024B000287A4FF00008A9F8148089F828000A202B
:1024C000A072686800BAFEF7C5F8C9E90601DAF833
:1024D000A410254601A805F80D6D88470AF13C07B0
:1024E0002878C2CFDAF850B088472846B04720464F
:1024F000B847D4F83300DAF800118847B4F83F0041
:10250000DAF80811884794F92300E021D84704201D
:1025100024F8158C04F81C0C9DF80600B4F83D2036
:10252000C9F82C8089F82900CD48002101F0AEFDC2
:1025300009E00320607084F8580004E094F8580023
:10254000A0B10320607005B0BDE8F08F042060707A
:102550002079C74951F82000C0498A6CD1F88450CD
:102560009047002060701448A84712E0BB48C16D36
:10257000BE4888470020E5E7E5602079BC4951F86E
:102580002000B6498A6CD1F8846090470A4865708B
:10259000B047B8480021642205B0BDE8F04F01F013
:1025A00075BD00BF0001002060010020785D0008BB
:1025B00002006400901B0020020032002DE9FC475D
:1025C000A44C607809280AD8DFE800F00C16212F07
:1025D000526F0505D10503206070BDE8FC8703201C
:1025E00060701EE09C480169B1F5807F5BD30321D8
:1025F00061700021016114E0042060709648416818
:1026000001314160B4F85A00420895481CE1E06885
:10261000411C2828E160C0F0E980032060700020A0
:10262000E060BDE8FC4701F029BD8C4F012004F8B3
:102630001D0F0A2107F13C0AA1724FF00008254640
:102640009AE8420684F83B8005F80D0D0120884782
:102650002846B0472046C847D4F81F00D047F96D38
:102660008548884744F8118C04F81C8CBDE8FC8729
:102670002078012817D1002525702089013020817C
:1026800094F8561080B2884240F2CB8001F0F6FCFC
:102690007248E570816B0325002065718847022030
:1026A000657084F85800BDE8FC8794F8580000284D
:1026B00091D16A4FDFF810856B4E3B6ED7F8A4506E
:1026C00040463146FF2298476846A84730780028A0
:1026D0003FF481AF206D98F80010B1EB106F7FF4DC
:1026E0007AAFC0F3074198F801208A427FF473AFB4
:1026F000C0F3072198F802208A427FF46CAF98F863
:102700000310C0B281427FF466AFD7F81801D7F842
:10271000649080475A2288F809204F4D9DF8012087
:1027200098F8043098F8057098F80660C5E9060135
:1027300085F82820237184F8597084F8566088F849
:102740000820FDF7A5FF296888F8070001312960F6
:10275000010E88F80410010C000A444A88F805109C
:1027600088F8060040460A21C847002034E794F85C
:10277000580000287FF42FAF384F022004F81D0FB7
:102780000A2107F13C09A1724FF00108254699E89A
:10279000420284F83B8005F80D0DD7F850A00220C6
:1027A00088472846B0472046C847D4F83300D7F8B2
:1027B000FC108847B4F83F00D7F80811884794F90F
:1027C0002300E021D0470020FD4924F8150C486083
:1027D0000861B4F83D00002108EB5002FD4801F00B
:1027E00055FC042004F81C0CBDE8FC870420607034
:1027F0002079F94DF34955F820008A6CCE6D904749
:10280000207994F8563055F820102289F34801F0C9
:10281000CDFFB4F85A0040040230B0470020607089
:102820000EE0E5602079EC4951F82000E5498A6C1A
:10283000CE6D90476570B4F85A0040040230B0473E
:10284000B4F85A008200E648002102B0BDE8F04723
:1028500001F01CBC0001002060010020785D000830
:102860007D3F0008901B002008000020020064004B
:10287000D0BE0008F5420008020000102DE9F04F1C
:1028800085B0CE4C6078092816D8DFE810F00A0031
:10289000180067007600AA00C8004F014C015101E2
:1028A0004F01C7480169B1F5807FC0F04181032124
:1028B0006170002101615BE00320607058E0C14855
:1028C000D0F8A410D0F80451D0F80CA1D0F8208191
:1028D00003A88847DFF8E8B29DF80D20DBF82C004C
:1028E0004FF48151584442540020A847DBF82C2073
:1028F0000BF1300545F8320005EBC20094F8149056
:10290000667D4160D04742B24846314600F07CFCCB
:10291000DBF82C6005EBC60755F836207B68FDF721
:10292000DBFC45F836007960C047DBF82C104FF42B
:1029300089520BEB8101885004206070DBF80400A1
:10294000DBF82C100130CBF80400481CCBF82C002D
:10295000A0480021012201F099FBE9E0E068411C58
:102960002828E160C0F0E780032060700020E0606C
:1029700005B0BDE8F04F01F081BB91484FF0000871
:10298000C0E9018801208F4F04F81D0F0A21254658
:102990007E6DA17284F83B8024F8158C04F8198CA4
:1029A00005F80D0D4FF6FF704FF6FF710022002362
:1029B000B04707F13C0A28789AE84206884728463B
:1029C000B0472046C847D4F81F00D047F96D80486B
:1029D0008847032044F8118C04F81C8C04F8170C69
:1029E000A6E02078012840F0A380002525702089EA
:1029F0000130208194F8561080B2884240F2C580A0
:102A000001F03CFB6F48E570816B0325D0F81C6139
:102A10000020657188470020B047657088E094F811
:102A20005800002840F08280DFF898B1664D674E6C
:102A3000DBF86030DBF8A47028463146FF22984767
:102A400001A8B84730780A28C0F09980687A5A28D7
:102A500040F09580206D2978B1EB106F40F08F80A9
:102A6000C0F307416A788A4240F08980C0F30721A9
:102A7000AA788A4240F08380E978C0B281427ED150
:102A8000DBF818018047DFF838812546C8E90601E0
:102A90009DF80500002188F82800022005F8100F95
:102AA00005F80C1C0121A5F84810282185F84610CE
:102AB0000A21E975D8F800100BF13C0A0131C8F879
:102AC00000102E469AE8820406F80D0FDBF85090AD
:102AD000022088472846B8473046D047B5F84C0012
:102AE000DBF808118847DBF868100020884795F963
:102AF0003000E021C847DBF81C1101208847002086
:102B000025F8080CC8F80400C8F82C00C8F8100014
:102B1000B5F84A00012101EB50022E48002101F0D6
:102B2000B5FA042003E0A079032801D103206070E6
:102B300005B0BDE8F08F042060702079264D214952
:102B400055F820008A6CCE6D9047207994F8563065
:102B500055F820102289214801F028FEB4F85A00C7
:102B600040040230B04700206070B4F85A000021E1
:102B700082001B4805B0BDE8F04F01F087BADBF8D2
:102B80005C10134888470020D1E7E560207912499E
:102B900051F820000B498A6C4E6DCF6D90474FF471
:102BA00000404FF40041002200236570B0470D48FB
:102BB000394605B0BDE8F04F084700BF00010020CE
:102BC00060010020785D0008901B002008000020B4
:102BD000020000107D3F0008D0BE000870BF000852
:102BE000F54200080200FFFF01F08ABBF8B5064677
:102BF0002048144600780D4608B901F081FBEFF338
:102C000011874FF0200181F3118830462946224672
:102C100000F004F887F31188F8BD00BF70B50D46C9
:102C2000144900EB400001EBC001C86A144601F1F1
:102C30001806022809D001280ED020B9304601F02C
:102C40008FFBA0420ED2002411E0304629462246D6
:102C5000BDE8704001F08FBB304601F081FBA0421F
:102C600038BF044630462946224601F0B6FB2046CE
:102C700070BD00BFD816002010B513460A4680214B
:102C8000044600F00BF800280FBF0020606D40F0F4
:102C90002000606518BF032010BD00002DE9FC4135
:102CA0001E4617460D468046FEF75EF8301AC419D8
:102CB000FEF75AF80646254801370068C0F3CB30C6
:102CC00060430190D8F8000081682940A9420FD1E3
:102CD000002FF9D0FEF748F8801BA0420BD20198D4
:102CE00001990028A1F10101019108BF0446E9E71B
:102CF0000020BDE8FC81D8E900014268B1F5827F7F
:102D000022F0E00242600BD1D8F80810B1F5004F74
:102D100002D0B1F5806F03D1016821F0400101605C
:102D2000D8F82810B1F5005F07D1016821F40051EF
:102D30000160016841F400510160002088F85000F2
:102D4000012088F851000320BDE8FC81D00000205C
:102D50007047E0B500F03F008DF807000DF1070166
:102D60008920012200F04CFC8CBDE0B540BAADF8E2
:102D700006000DF106019720022200F041FC8CBDF7
:102D80002DE9FE4FCDE90123A1F11802B2FA82F23A
:102D900050384FF0FF3652090A2906EB301108BFB0
:102DA000022207294FF0000138BF4FEA301101EB32
:102DB00041001949002701EB800050F822804FF0B4
:102DC000000A08F108094FF0000B98F8000087424C
:102DD0001DD23044FDF73EFC02460B46DDE9010101
:102DE000D9E9004502F0ECF902460B462046294697
:102DF000FDF719FB02460B4650465946FDF76CFAA3
:102E000082468B46013E09F108090137DDE750464D
:102E1000594603B0BDE8F08F8800002080B540F629
:102E20009F0000F06BFB00F07F0140F69F0000F078
:102E300011FC40F6950000F061FB40F0010140F606
:102E40009500BDE8804000F005BC80B540F69F00CD
:102E500000F054FB40F0800140F69F0000F0FAFBC8
:102E600040F6950000F04AFB00F0FE0140F69500A8
:102E7000BDE8804000F0EEBB10B540F2531000F00A
:102E80003DFB04464FF4AA7000F038FB40EA0420F2
:102E900010BD000070B5DA4840780138012830D8FC
:102EA000D84D40F65410A847044640F65510A847A0
:102EB000060240F6561064F31346A8473044124900
:102EC000B0F5002F28BF0843FDF7C4FB0F4A104B95
:102ED000FDF7A9FA04460D4600F02CF8FDF7BAFB01
:102EE0000B460C4902460020FDF70FFB0A4B00225F
:102EF000FDF799FA02460B4620462946FDF705FBE9
:102F000070BD0020002170BD0000F0FFCDCCCCCC06
:102F1000CCCCF83F0000994000408F40E0B50DF167
:102F200006011520022200F0BBFABDF8060000BA27
:102F3000000C8CBDB24880780A2808D0182808D028
:102F4000342808D0262814BF0020074870470448BA
:102F50007047044870470148704700BF7519030067
:102F6000A8CB1800D4650C00EA320600F9480078B6
:102F7000704700BF7CB504460DF103011D200522FA
:102F800000F08EFAF34840780428207014D8DFE867
:102F900000F01D0303437F009DF803206FF0010143
:102FA0009DF8040092FBF1F1617041B2002900F13B
:102FB0009C80C8B280089DE00F2840F0D28000209D
:102FC0006071C4F801000F2020707CBD9DF80320C3
:102FD0009DF804306FF0010192FBF1F293FBF1F1E7
:102FE0009DF805009DF806506270A1709DF80710CD
:102FF000667901F00701237906F0F8063144E2789A
:103000006171C5F3401103F0FC03194405F001039D
:1030100041EA430121715CE09DF803209DF80430F2
:103020006FF0010192FBF1F293FBF1F19DF80500C5
:103030009DF806506270A1709DF80710667901F046
:103040000701237906F0F8063144E2786171042122
:1030500003F0E00301EAD50643EA9513334408265A
:1030600006EA5506334405F0010543EA05132371CA
:1030700000F00805C0F380160223354422F07F02D9
:1030800003EA10132A441A4401EA900111445BE058
:103090009DF803209DF804306FF0010192FBF1F2DE
:1030A00093FBF1F19DF805009DF806506270A17048
:1030B000237905F0010103F0FE031944E2786579F4
:1030C00021719DF8071005F0F80301F0070119447C
:1030D000617100F00803C0F3801502212B4422F037
:1030E0007F0201EA10111A4429E060F0FF00042178
:1030F00090FBF1F0A0709DF8072066799DF806100E
:1031000002F00702257906F0F80632449DF8050022
:10311000E3786271C1F3401205F0FC052A4401F026
:10312000010142EA4101217100F00802C0F380155B
:1031300002212A4423F07F0301EA10111A441144AA
:10314000042202EA9002114400F0040241EA8201E2
:1031500000F0020241EA021100F0010041EA801091
:10316000E0707CBD9C484078704700BF7CB50E463F
:1031700004460DF107013046154600F007F9327894
:10318000AA4284BF01207CBD9DF80700214600F0C3
:1031900057F900207CBD000070B58F4840780228A8
:1031A0001CBF002070BD002000F036FE6A4E40F6C5
:1031B0002710B04700F0FC0140F6271000F04AFA53
:1031C0004FF41660B047044640F65F10B04705461E
:1031D00040F62710B04700F0FC00411C40F62710D5
:1031E00000F038FA4FF4166044EA0524B04744EA88
:1031F000004440F65F10B04744EA006070BD00BF75
:10320000E0000020FD34000810B5A1F11803B3FA66
:1032100083F30A29A0F150004FF0FF314FEA531316
:1032200001EB301108BF022300240729074938BFEA
:103230004FEA301404EB440001EB800050F82310F7
:1032400051F8320001EBC201496810BD4000002076
:1032500010B5012000F0E0FD3F4C40F67F10A04784
:1032600040F0020140F67F1000F0F4F940F624101F
:10327000A04700F0CF0140F6241000F0EBF940F633
:1032800064102146BDE81040084700BF2DE9F04119
:1032900004465148407802283BD1012000F0BCFD93
:1032A0002D4D40F67F10A84740F0020140F67F10F8
:1032B00000F0D0F940F62410A84700F0CF0004F049
:1032C000030140EA011140F6241000F0C3F940F672
:1032D0006110A847804640F66210A847074640F6AE
:1032E0006310A84706460020002500F095FD38022F
:1032F00040EA0840611E304403290DD2FDF7BBF9B6
:10330000164B0022FDF78FF8154B0022FDF7FDF854
:103310001BE00025002119E0002CFBD1B0F5000FC7
:1033200028BF00F17F40FDF795F904460D46FFF7F1
:1033300001FEFDF78FF902460B4620462946FDF7B0
:10334000E4F8084B0022FDF76EF805462846BDE874
:10335000F08100BFE0000020FD3400080000344090
:1033600000005940A3E1E140E0B500208DF80700DE
:103370000DF107011F20012200F092F89DF80710BF
:103380006FF0010091FBF0F040B28CBD7CB50C46B3
:1033900005460DF106011720022200F081F8CF4EFC
:1033A0007178012908D140F6031000F0A7F840B267
:1033B000B0F1FF3F06DD71789DF80600042908BFD3
:1033C000023003E040F6011000F098F828709DF8F4
:1033D000070020707CBD00BFE0000020E0B50020A9
:1033E0008DF807000DF10701C020012200F058F808
:1033F0009DF807008CBD0000B0B5AE4C4FF4807155
:103400002046FDF729FB054604F580604FF4004196
:10341000FDF722FB45EA4000C0B2B0BD10B504463E
:1034200000F0AAF82046BDE8104000F001B8000006
:1034300003685D484FF400410022FDF711BB00BF57
:10344000F8B50D469A49144600228A7048701B2030
:103450000870002083B2A34203D20B44DA7001301B
:10346000F8E700F0A3F8934E4FF480513046002265
:10347000FDF712FB3F4F8E48E21C394600F094FDE9
:10348000F91C28462246FCF75DFE30464FF4805179
:103490000122FDF701FBBDE8F84000F087B800BF4E
:1034A000F8B51446824A0D46002151701070901CE8
:1034B00022461AB100F8011B013AFAE700F076F84B
:1034C0007C4E4FF4805130460022FDF7E5FAA01CF7
:1034D000284F82B27648394600F066FDB91C28466E
:1034E0002246FCF72FFE30464FF480510122FDF7B3
:1034F000D3FABDE8F84000F059B800BFE0B50DF1CF
:103500000701012200F004F89DF807008CBD0000BF
:10351000F8B51446664A0D460021D1709070192303
:10352000000A13705070101D22461AB100F8011BDA
:10353000013AFAE700F03AF85E4E4FF48051304617
:103540000022FDF7A9FA201D0A4F82B258483946D9
:1035500000F02AFD391D28462246FCF7F3FD3046CF
:103560004FF480510122FDF797FABDE8F84000F0D2
:103570001DB800BFD01C0020B0B50A4D1420A847CC
:10358000094C082120460022FDF786FA3220A84780
:10359000204608210122FDF77FFA14202946BDE8C4
:1035A000B0400847810B0008000C014010B5414CA9
:1035B00020464FF48071FDF7CDFB0128F8D010BDF7
:1035C00070B53B4D144668701A202870A81CFCF793
:1035D000B9FDFFF7EBFF374E4FF480513046002224
:1035E000FDF75AFAA11C284600F0D6FC30464FF4ED
:1035F00080510122FDF750FABDE87040FFF7D6BFB9
:103600002DE9F04116460F460446FFF7CFFF294843
:103610004FF4805100228046FDF73EFA244D394692
:10362000284600F8014B3246FCF78CFD701C81B235
:10363000284600F0B1FC40464FF480510122FDF7CE
:103640002BFA842C08BFBDE8F081BDE8F041FFF7FC
:10365000ADBF00BFE0B58DF807100DF107010122E5
:1036600000F002F88CBD000070B5114E1546B07028
:103670001822000A32707070F01C2A46FCF762FDB6
:10368000FFF794FF0B4C4FF4805120460022FDF7CA
:1036900003FAE81C81B2304600F07EFC20464FF46D
:1036A00080510122FDF7F8F9BDE87040FFF77EBFB9
:1036B000CF2C002000080140F34988600148FFF743
:1036C000ADBE00BF3C000020F748C178012918BFFB
:1036D00000F006B801210171704700BFE000002032
:1036E00070B5F14D2878002800F01C81E878012899
:1036F00009D12879012840F01581EFF3108072B6C6
:103700000020287162B66E78FFF708FC04464FF679
:10371000FF70FFF72AFB042E00F20481DFE806F0B9
:10372000031C5C0303002878042845D0052840F0DA
:10373000F980A00740F1B280600600F19B80A86884
:10374000210700F1A680002800F0A880406800282A
:1037500000F0A4808047A1E0287804282CD0062817
:1037600000F08E80052840F0DD80A00700F1B580D4
:10377000A868E10604D518B1C16809B18847A868EE
:10378000A10605D520B1816911B100208847A8683C
:10379000610404D518B1416909B18847A868E105F9
:1037A00040F19380002800F090808169002900F0AA
:1037B0008C800320884787E0A868E10704D018B10F
:1037C000016809B18847A868610440F1AB8000280E
:1037D00000F0A88000697CE02878042838D005280B
:1037E00040F0A080A868E10505D520B1C16911B1FC
:1037F00000208847A868210505D520B1C16911B10D
:1038000001208847A868210605D520B1C16911B1FA
:1038100001208847A868610405D520B1C16911B1AC
:1038200000208847A868E10604D518B1C16809B12D
:103830008847A868A10605D520B1816911B100208B
:103840008847A86821046DD500286BD0406A40E005
:10385000A868610505D520B1C16911B1022088476A
:10386000A868A1055ED500285CD0C169002959D09F
:10387000032054E0A86888B1816979B102200CE086
:10388000E00436D460044DD5A86800284AD04069C9
:103890001FE018B1816909B101208847A868610754
:1038A00004D518B1816809B18847A868210705D5F2
:1038B00020B1816911B101208847A868610404D54D
:1038C00018B1416909B18847A868E1072AD048B30F
:1038D000006838B3BDE870400047A868610610D49E
:1038E00000283FF445AF406800283FF441AF8047CF
:1038F0003EE7A868A1040ED4A0B1016A91B10020EE
:103900000DE000283FF434AF816900293FF430AF67
:10391000022088472CE728B1016A19B10120BDE8CF
:103920007040084770BD00BF10B540F62310FFF788
:10393000E5FD044640F0200140F62310FFF78AFE23
:1039400004F0DF0140F62310BDE81040FFF782BE0F
:10395000014640B2002840F61E1058BF7F21FFF7F5
:1039600079BE10B5144600F089F92046BDE8104034
:1039700000F0AEBAE0B58DF807000DF107019A200E
:103980000122FFF73DFE8CBDE0B58DF807000DF17B
:1039900007019E200122FFF733FE8CBDE0B52138E0
:1039A00000BA000CADF806000DF1060198200222C5
:1039B000FFF726FE8CBD0000B0B50B4D0446010E8E
:1039C00040F6CF10A847C4F307414FF41D60A84745
:1039D000C4F3072140F6D110A847E1B240F6D21057
:1039E0002A46BDE8B0401047553600080148FFF7A9
:1039F000E3BF00BFD6BE898EE0B58DF807108DF805
:103A000006000DF106018F200222FFF7F9FD8CBDA3
:103A100080B5C52000210022FFF7F2FDEC48062109
:103A2000017080BDE0B58DF807000DF10701882019
:103A30000122FFF7E5FDE648062101708CBD00BFBD
:103A4000E0B540BAADF80600F2484078032800D04F
:103A500030B90DF1060140F6C6100222FFF704FE50
:103A60008CBD00BFE0B540BAADF80600F348407821
:103A7000032800D030B90DF1060140F6C81002222B
:103A8000FFF7F2FD8CBD00BFE0000020E0B500BAFA
:103A90000190EA484078022805D101A940F61610A5
:103AA0000422FFF7E1FD8CBDE0000020E0B58DF8B9
:103AB00007301B0A8DF806308DF80520120A8DF8A4
:103AC00004208DF80310090A8DF802108DF801000A
:103AD000000A8DF8000069468D200822FFF790FD4E
:103AE0008CBD000080B5C12000210022FFF788FDB9
:103AF000ED480321017080BDEB480021C170704783
:103B000080B548B1012818BF80BD40F69100FFF78D
:103B1000F5FC60F03F0005E040F69100FFF7EEFC99
:103B200000F03F00C1B240F69100BDE88040FFF7D1
:103B300091BDE0B58DF807000DF107019B20012232
:103B4000FFF75EFD8CBD10B5044640F69E00FFF702
:103B5000D5FC00F0F00040EA040140F69E00BDE80C
:103B60001040FFF777BD0000BCB5E84D0446007873
:103B70006978814202D000F075F8217804290FD8C5
:103B8000DFE801F01603031B200020796179A27998
:103B9000A9708DF805008DF806108DF8072018E043
:103BA0000F2916D100208DF80700ADF8050010E0B0
:103BB00060788DF80500608809E0E0798DF80500EF
:103BC000208904E0A07A8DF80500B4F80B00ADF868
:103BD00006000DF105018B200322FFF711FDBCBD8E
:103BE0001CB5DF49044600784978814202D000F0D4
:103BF00039F8217804290FD8DFE801F01403031CF9
:103C000026000020ADF80500207A8DF80000D4F8D9
:103C10000900CDF801001EE00F291CD10020CDF8CD
:103C2000030017E060788DF800006088ADF80100AF
:103C3000606806E0607B8DF80000E089ADF8010067
:103C40002069CDF8030006E000208DF80600ADF8ED
:103C500004006069009069468C200722FFF7D0FCC1
:103C60001CBD00BFE0B5BE498DF8070048700DF1DE
:103C700007018A200122FFF7C3FC8CBD0A460146DA
:103C80000020FFF79DBC0000B5480121C1707047BE
:103C900010B50446B2484078022818BF10BD210A6A
:103CA00040F62C10FFF7D6FCE1B240F62D10BDE82F
:103CB0001040FFF7CFBC00BF10B50446A8484078BD
:103CC000022818BF10BD40F63110FFF717FC00F0B6
:103CD0003F0040EA8410C1B240F63110BDE8104008
:103CE000FFF7B8BCE0B500BA01909D4840780228C3
:103CF00005D101A940F612100422FFF7B5FC8CBDD6
:103D0000E0B58DF807000DF10701A3200122FFF7B0
:103D100077FC8CBD00200021FFF79CBCE0B58DF83E
:103D200007000DF1070196200122FFF769FC8CBD09
:103D3000E0B5FCF7A0FC0A4B0022FCF7E6FBFCF721
:103D4000C6FC8DF80700010A000C8DF806108DF8EE
:103D500005000DF1050186200322FFF751FC8CBD03
:103D6000A8CB68401CB58DF80500010C000E8DF83D
:103D700007108DF806004FF6FF70FEF7F6FF784C3F
:103D80006078022802D10020FFF7BAFF0DF105018B
:103D900082200322FFF734FC052020701CBD00BFE9
:103DA0001CB58DF80300100A8DF807208DF8060069
:103DB000080A8DF805108DF804000DF10301942018
:103DC00005220524FFF71CFC654804701CBD00BFDC
:103DD000E0000020D52000210022FFF711BC0000E8
:103DE000E0B55F4900220A700422022102EA400283
:103DF00001EA500160F3C3021144C0F3C00008445B
:103E00008DF807000DF1070184200122FFF7F8FB70
:103E10008CBD00BFE0000020E0B58DF807000DF17B
:103E2000070180200122FFF7EBFB9DF8071002201D
:103E300000294B4908BF012008708CBDE00000201C
:103E400080B5474A5278042A0CD0032A0DD0B2B963
:103E500001281AD003281CD0022810D1052240F6D0
:103E6000D3101DE001280AD10BE0012809D0032856
:103E700013D0022803D1042240F6D41010E0012010
:103E800080BD042240F6CF100AE0052240F6CE1095
:103E900006E0052240F6D81002E0042240F6D910D0
:103EA000FFF7E2FB002080BDE000002010B50446D3
:103EB00040F6CD10FFF722FB04F00F0100F0F000F8
:103EC000014440F6CD10BDE81040FFF7C3BB000031
:103ED0001CB58DF80500010C000E8DF807108DF84B
:103EE00006004FF6FF70FEF740FF1D4C6078022879
:103EF00002D10120FFF704FF0DF105018320032209
:103F0000FFF77EFB042020701CBD00BFE0000020F6
:103F1000D22000210022FFF773BBD1200021002214
:103F2000FFF76EBBE0B512308DF807108DF8060074
:103F30000DF106018E200222FFF762FB8CBD00000E
:103F4000014607484078042809D8012202FA00F007
:103F500010F0190F03D040F6C510FFF77BBB704778
:103F6000E0000020E0B50020ADF806000DF10601EC
:103F700098200222FFF744FB8CBD0000DF4801219E
:103F8000017090F85800012803D1024801690131FD
:103F900001617047600100200A46014617484FF052
:103FA000FF33FDF775BB00BFE0B513460A46014677
:103FB0004FF0FF3000901148FDF71DFC8CBD00BF95
:103FC000B0B50E4800210E4B0A244FF48272C0E9AE
:103FD0000811C0E90A1418244FF40075C0E9003232
:103FE000C0E90211C0E90411C0E90654FDF7BCFAAA
:103FF00018B1BDE8B040FCF706BDB0BD801600208A
:104000000030014080B5FCF79DFFBDE8804000F026
:104010004BB8B0B590B0002401A81421CDE90B44F1
:10402000CDE90944FCF7A7F84FF400200F904FF4B6
:104030008030022501210E900D950A910894CDE95A
:10404000061006A8FDF7F8F818B1EFF3108072B665
:10405000FEE74FF48060059404900F20CDE90254F0
:10406000019001A80121FDF701F818B1EFF31080CC
:1040700072B6FEE710B0B0BD7047000015480021D1
:10408000C0E90111C0E9031101707047F8B5114F83
:104090000646012014460D463870FCF765FE391DB2
:1040A00051C13D61F8BD00BF10B50A4C2078012810
:1040B0000ED1FCF759FED4E90112401A904207D301
:1040C000E16809B1206988470020C4E90100207037
:1040D00010BD00BFEC000020406A0021C185C184F2
:1040E000FDF78DBC016851E8031F026821F490714F
:1040F00042E80313002BF5D1016851E8051F02685F
:1041000021F0010142E80513002BF5D1016B0129D3
:1041100009D1016851E8031F026821F0100142E84B
:104120000313002BF5D1202180F8421000210163F8
:10413000704781B090F84210222920D18368B3F5EE
:10414000805F08D10169002949D000F128010A687F
:1041500003685B680AE0014651F8282F13B9036928
:10416000002BF5D003685B6803F07F0313700A68C7
:1041700001320A60C18D0139C185090401D001B045
:1041800070470168CA6822F02002CA60CA6822F437
:104190008072CA604A6922F001024A61202280F8D6
:1041A000422000224263036B012B21D1026351E8BC
:1041B000031F026821F0100142E803130168002B7D
:1041C000F5D10A68D20606D5002200920A6800924C
:1041D000496800910099818D01B0FDF70FBC01681D
:1041E000826A49686FF35F2122F8021B8262C1E78D
:1041F00001B0FDF7C1BD0000B0B50446006804F190
:1042000008030ECB0569194325F440552A43026182
:10421000C268636941F20C65AA4319431143C16046
:104220004169A26921F440711143416111498842F9
:1042300002D0FCF7B9FF01E0FCF7C0FF19214843A9
:10424000D4E900126FF063049200B0FBF2F0642234
:10425000B0FBF2F303FB0400322404EB0010B0FBCC
:10426000F2F000F0F00202EB031200F00F00104435
:104270008860B0BD003801402DE9F0411D469046F0
:104280000F4604465E1C206800683840B84227D0BC
:10429000002EF8D02DB1FCF767FDA0EB0800A84276
:1042A000F1D9206850E8030F216820F4D07041E86C
:1042B0000302002AF5D1206850E8050F216820F09C
:1042C000010041E80502002AF5D12020002184F8F0
:1042D000410084F8401084F842000320BDE8F081DA
:1042E0000020BDE8F0810000D448FDF789BB00BF85
:1042F000FEE70000014802214170704700010020E4
:10430000F0B51048104B114C114F00214FF4806252
:10431000032510268162C0E918478666C162C0E99C
:104320000455C0E90643C0E908210A4AC0E91C1146
:10433000C0F80720084A0260084AC0F80320C16696
:10434000F0BD00BFD816002090170020AEBF0008B7
:104350008017002052545400534547474745522088
:10436000C2680169914201D9D04302E0D24380681A
:104370001144084470472DE9F843C76814460D46B8
:1043800080464FF00009D8F81000F943B84203D92D
:10439000D8F80820014403E0D8F808200844811820
:1043A000D8F80400D61BB14238BF0E463844A642A6
:1043B00028BF264629463246FBF7C4FED8F8081027
:1043C000F019471A18BF0746A41B3544B144C8F872
:1043D0000C70D8D14846BDE8F8832DE9F041044679
:1043E0008846D4E9021640688F1B15463044974230
:1043F00005D941462A46FBF7A5FE35440AE0414669
:104400003A46FBF79FFEED1B606808EB07012A4662
:10441000FBF798FEE560BDE8F081000010B5074CA1
:1044200000F00F032344044AB0F1FF3FC8BF8318D4
:104430000801187010BD00BF00E400E014ED00E0BA
:104440001CB501907D4801AC214601224FF6FF7357
:10445000FDF793FC002021460122FEF7C7FB0198DF
:104460001CBD00BF2DE9F04F85B0FCF777FDFFF7CD
:10447000D0FD6B486C4E0168002241F010010160D4
:1044800001684FF4804901F0100101910199016820
:104490004FF0000A41F020010160016801F02001A5
:1044A00001910199016841F004010160016801F086
:1044B000040101910199016841F00801016000685F
:1044C0004FF4804100F0080001900198554800F534
:1044D000484804464046B04704F5404528464FF456
:1044E00080510022B04704F54444204608210122AF
:1044F0000127B04720464FF480710122B047204683
:104500004FF400710122B0474FF0020BCDE903AB2D
:10451000CDE9019701AEDFF8149140463146C84716
:1045200002A880E8800C4FF440700190204631468C
:10453000C8473F48CDF80CB002904FF400482046E1
:104540003146CDF80480C8474FF48070CDE902AB06
:10455000019028463146C847284631460397CDE9A1
:10456000018AC847204631460397CDE9017AC847FA
:104570004FF46060CDE902AA019028463146C84751
:104580004FF48050CDF810B0CDE9027B0190284661
:104590003146C84702A880E8800C082001902046D8
:1045A000204C3146C847282000210022FCF732FD6C
:1045B0002820FCF721FD1F481F4904F54062C0E98F
:1045C00000214FF48041C0E902AAC0E9041AC0E901
:1045D00006AAC0F820A0FCF7CBFB18B1EFF31080BF
:1045E00072B6FEE7FFF7ECFC14480C214FF4E13201
:1045F000C0E90042C0E902AAC0E904A1C0E906AAD4
:10460000FDF746FB18B1EFF3108072B6FEE7FEF738
:10461000EBFA00F015F8002005B0BDE8F08F00BF00
:1046200018100240004800405F0D0008B90B000858
:1046300000001110D03C0020A0860100243D002085
:1046400082B03C4C4FF40041A4F58060FCF782FB43
:104650000546204601210126FCF77CFB40EA450087
:10466000C0B203280DD0C8B93348002101702046DC
:104670004FF480710022FCF772FB20464FF400716A
:104680000AE02D484FF40071067020460022FCF726
:1046900066FB20464FF4807101220CE0264802217F
:1046A000017020464FF480710022FCF758FB204631
:1046B0004FF400710022FCF752FB1F4D2878FDF7E4
:1046C000BBFC28204FF0805101220023FDF7E6FDBE
:1046D0000D201A4B009060200A210122FDF7CEFD2B
:1046E00017484168046B8847A04704460A2001F038
:1046F00053FA297813A019A2012908BF02461DA068
:10470000002918BF104601F04DFA20A0214600F004
:104710004DF8FDF76FFD0228FBD00446287840F0E5
:104720000200022801D1FDF7C5FD032CF1D0FDF7F1
:104730004BFDEEE7000C01406C3D00208008089224
:10474000785D000852616E67696E672044656D6F21
:1047500020617320536C61766500000052616E67C2
:10476000696E672044656D6F20617320536E6966C2
:104770006665720052616E67696E672044656D6F91
:10478000206173204D61737465720000496E697415
:104790002066696E6973682C206669726D77617234
:1047A000652030782578210A000000000FB4054B01
:1047B00010B503A9044A029800F06AF910BC5DF82C
:1047C00014FB00004144000800000020490050EAAA
:1047D000C12018BF04204A0D18BF40F0010040F26C
:1047E000FF72B2EB515F08BF40F00200012808BF22
:1047F000052070472DE9F0414F1E00EBC70104462C
:10480000D1E9000115461E4637F006020DD02A46B2
:104810003346FBF708FE7F1E04EBC703D3E90023F2
:10482000FBF75AFD37F00602F1D1022F25D0042FF5
:1048300013D0062F18BFBDE8F0812A463346FBF798
:10484000F2FDD4E90A23FBF747FD2A463346FBF77E
:10485000EAFDD4E90823FBF73FFD2A463346FBF780
:10486000E2FDD4E90623FBF737FD2A463346FBF782
:10487000DAFDD4E90423FBF72FFD2A463346FBF784
:10488000D2FDD4E90223FBF727FD2A463346FBF786
:10489000CAFDD4E90023BDE8F041FBF71DBD0000CF
:1048A0000022134610460149FBF72FBE0000F03FDF
:1048B000FBF712BD0022134610461146FBF725BE3A
:1048C00040F2013200204FF0E041FBF7ECBF000066
:1048D000024A00201107FBF7E6BF000001FDFFFFC1
:1048E00002E008C8121F08C1002AFAD170477047B9
:1048F000002001E001C1121F002AFBD17047000017
:104900000149086070470000040000202DE9FF5FA6
:1049100082B00021DDE90430020DDDF840B0034330
:1049200018D044F61050A2F2FF32424315141198E9
:1049300001281FD0A5EB0B00401C5FEA000A4FF0D6
:1049400000064E4FDFF83891B046504615D5CAF1F3
:10495000000413E0119801244AA3012801D16FEA51
:104960000B010298119AC0E90031C0E9024206B079
:10497000BDE8F09FCBF10000DFE704460021404A8C
:10498000491842EB0450CDE9001012E0E00707D0CF
:1049900032463B4640464946FBF745FD8046894640
:1049A00032463B4610461946FBF73DFD06460F468C
:1049B0006410002CEAD1DDE90401DDE90023BAF13D
:1049C000000F06DAFBF72FFD42464B46FBF72BFDA7
:1049D00005E0FBF79AFD42464B46FBF796FD044681
:1049E0000E460022284BFBF78DFF03D84FF0FF3017
:1049F000014607E00022254B20463146FBF76CFCC0
:104A0000FBF768FF102409E0002C0ADB0A220023D0
:104A1000FBF78CFE039B30321A55641E50EA0102EC
:104A2000F2D1641C039AC4F111031444119A012AAF
:104A300003D0012208430DD10AE0084304D000202E
:104A40004FF0110B119072E7A3EB0B056D1E0DE0FB
:104A50005B4504DD4FF0000205F1010504E003DAD7
:104A60004FF00002A5F10105002AECD0029811993F
:104A7000C0E90231C0E9004579E7000000001440B8
:104A80000000F03F300000000000F0430000E03F75
:104A90002DE9FF4F95B09B468946064600250FE25B
:104AA000252877D100242746F84A0121059400E003
:104AB000044316F8013F203B01FA03F01042F7D1FE
:104AC00030782A2811D06FF02F033078A0F130020F
:104AD000092A16D8059A44F0020402EB820203EB7D
:104AE00042021044761C0590EFE759F8042B05921A
:104AF000002A03DA504244F40054059044F00204C2
:104B0000761C30782E2816D116F8010F44F00404D4
:104B10002A280DD06FF02F023078A0F13003092B36
:104B200009D807EB870302EB4303C718761CF3E7AA
:104B300059F8047B761C30786C280FD006DC4C28A2
:104B400017D068280DD06A2814D104E0742810D03A
:104B50007A280FD10DE044F400140AE044F48014E4
:104B600001E044F440147278824202D104F58014CA
:104B7000761C761C307866280BD013DC582877D04A
:104B800009DC002875D04528F6D04628F4D04728FF
:104B90001AD19DE118E0632835D0642879D06528C2
:104BA00012D195E1702873D008DC6728F1D069280C
:104BB0006FD06E280DD06F2806D1B5E073282CD0A9
:104BC000752875D0782874D05A46179990476D1C6F
:104BD00075E1C4F30250022809D003280DD0D9F89A
:104BE000001004280DD00D6009F1040967E1D9F81F
:104BF0000010EA17C1E90052F6E7D9F800100D805D
:104C0000F2E70D70F0E719F8041B8DF80010002092
:104C10008DF80100EA46012003E059F804AB4FF09B
:104C2000FF3061074FF0000102D40DE008F10101EF
:104C30008846B9420FDA8045F8DB1AF808100029D7
:104C4000F4D108E008F1010188468142FADB1AF844
:104C500008100029F6D105985B46A0EB080721460D
:104C60003846179A00F094FA284400EB080507E04C
:104C70004DE029E10DE01AF8010B5A4617999047CB
:104C8000B8F10108F7D25B4621463846179A13E17E
:104C900042E00A220092C4F302524FF0000A022AB4
:104CA00008D059F804CB032A4FEAEC710AD00DE082
:104CB00029E02AE009F1070121F00702F2E802C128
:104CC000914609E00FFA8CFC4FEAEC71042A03D1FB
:104CD0004FFA8CFC4FEAEC71002907DA0A460021F2
:104CE000DCF1000C61EB02012D2202E0220504D56B
:104CF0002B228DF80420012203E0E20701D02022BC
:104D0000F7E7904659E00A2102E010220DE0102159
:104D10004FF0000A00910BE010224FF0000A44F01F
:104D200004040827009203E008224FF0000A0092D2
:104D3000C4F30252022A05D059F804CB0021032AF9
:104D400008D009E009F1070121F00702F2E802C1E9
:104D5000914605E01FFA8CFC042A01D10CF0FF0CEF
:104D60004FF00008220728D5702806D0009B83F05A
:104D7000100353EA0A0305D00EE040228DF8042008
:104D8000012208E05CEA010206D030228DF80420FE
:104D90008DF8050002229046009B83F0080353EA39
:104DA0000A030AD15CEA010201D1620705D530226B
:104DB0008DF804204FF001087F1E582804D034A03D
:104DC00003900EA802900DE036A0F9E75346604626
:104DD000009AFBF7ABFC84460398825C0298401E65
:104DE000029002705CEA0100F0D1029806A9081A4C
:104DF00000F1200A600702D524F4803400E0012786
:104E0000574502DDA7EB0A0000E0002000EB0A0195
:104E1000009005984144401A0590E00306D45B4693
:104E20002146179A059800F0B3F90544002706E0DB
:104E300001A85A46C05D179990476D1C7F1C4745D5
:104E4000F6DBE0030CD55B462146179A059800F087
:104E50009FF9054404E030205A46179990476D1C8D
:104E60000099481E00900029F5DC08E0029802999C
:104E70005A460078491C0291179990476D1CBAF167
:104E80000001AAF1010AF1DC65E100000928010036
:104E900030313233343536373839616263646566B0
:104EA0000000000030313233343536373839414272
:104EB000434445460000000000F058F90544761CC4
:104EC000307800287FF4ECAD19B02846BDE8F08FAB
:104ED000620700D4062709F1070222F0070CFCE85C
:104EE0000223E14603F000485FEA080C02D00FF20B
:104EF000702C0DE05FEA045C02D50FF2682C07E02D
:104F00005FEAC47C02D00FF2602C01E0AFF2700CBB
:104F10004FF0FF3823F00043CDF850C065280CD087
:104F200006DC452809D046281DD047283DD13DE064
:104F3000662818D067287ED138E00021112F01DBC8
:104F4000112000E0781CCDE9000106A90EA8FFF7AA
:104F5000DDFCDDE90F010E9A03910021009207F1BB
:104F6000010A04914DE04FF000400097CDE9011097
:104F700006A90EA8FFF7CAFCDDE90F0203920E9BFB
:104F800011990022DDF80CA00093049211B9791C4C
:104F900000EB010AB7EB0A0004D4C0F1FF3007F1BF
:104FA000010A0490AAEB0700019044E0012F00DA07
:104FB00001270021112F01DD112000E03846CDE945
:104FC000000106A90EA8FFF7A1FCDDE90F010E9A6A
:104FD0000391002104910092BA4621070CD4039951
:104FE000514500DA8A46BAF1010F05DD009AAAF1AF
:104FF0000101515C302908D0B84202DA10F1040FE7
:1050000006DA0121CDE9011015E0AAF10101E9E775
:10501000002805DC049901440491AAEB000102E098
:10502000411C514500DD8A460499401A401C0190FC
:105030004FF000400290200704D40198504501DB56
:10504000CDF8048000208DF84F0002980DF14F0735
:10505000B0F1004F25D02B200E9002984FF002089F
:1050600000280CDA404202902D200E9007E00A2121
:105070000298FBF745FB3031029007F8011DB8F1AB
:105080000001A8F10108F2DC02980028EFD1791E96
:105090000E980870307800F0200040F0450007F8C6
:1050A000020D12A8C01B00F107081498007800B187
:1050B000012000EB0A01019801EBE07105984144E1
:1050C000401A401E0590E00306D45B462146179A1D
:1050D000059800F05DF805441498007818B15A4618
:1050E000179990476D1CE00324D55B462146179A1B
:1050F000059800F04DF805441CE00498002807DBF3
:10510000DDE90301884203DD0098405C179901E066
:10511000179930205A469047049805F10105401C24
:1051200004900198401E019004D12E205A461799F0
:1051300090476D1CBAF10001AAF1010ADDDC05E01F
:1051400017F8010B5A46179990476D1CB8F10001EA
:10515000A8F10108F4DC5B462146179A0598ABE6F6
:105160002D0000002B000000200000002DE9F04180
:10517000044600251E461746880404D405E0394637
:105180002020B0476D1C641EF9D52846BDE8F0818B
:105190002DE9F041044600251E469046C80301D57E
:1051A000302700E02027880404D505E04146384632
:1051B000B0476D1C641EF9D52846BDE8F08100009B
:1051C0002DE9F04D1D460C4698B0174621F00041E0
:1051D00023F00043002814BF4FF0010C4FF0000CE7
:1051E0000CEB440CFE4A0CEB02064FEA620C6645DF
:1051F0002BD33E0018BF012606EB45061644F94A9C
:10520000964222D3F84A53EA070C02D0944205D1C1
:1052100048B918B000201146BDE8F08D002808BF3D
:105220004FF0000C01D04FF0010C0CEB440212F5D2
:10523000001F0AD8002F14BF4FF0010C4FF0000CD4
:105240000CEB450212F5001F07D918B03A462B4661
:105250002146BDE8F04DFFF72BBB0022DFF88CA301
:10526000002CB8BF534526DADFF884C36345A8BFD6
:10527000022220DADFF870C39C451CDCDFF874C31F
:105280000CEB235CBCF1140F08DDCCF1340627FADB
:1052900006FC0CFA06F6BE420DD108E05FB9CCF16F
:1052A000140623FA06FC0CFA06F69E4203D10CF013
:1052B0000102C2F1020251EA000C19D1002D17DAE5
:1052C000002C18BF022A01D0012A07D00220FFF7C4
:1052D00017FB18B0BDE8F04DFFF7E2BA0220FFF768
:1052E0000FFBFFF7DDFA18B081F00041BDE8F08D4B
:1052F000B7F1000C6CD1534525D104F1804212F571
:10530000801201BF00280020B74918B008BFBDE8CF
:10531000F08DB548884207DC002DA1BF60462946C4
:1053200018B0BDE8F08D07E0281E05DA80F00041D6
:1053300018B06046BDE8F08DAF497944D1E900016D
:1053400018B0BDE8F08DDFF8A0C2634525D1002D6F
:105350001FDA19B1514512D1D8B909E0002840F03F
:10536000EC82A24A214618B062F31E01BDE8F08D1E
:105370000020214618B060F31E01BDE8F08D08DA68
:1053800018B02346BDE8F04D024600206146FBF709
:10539000BCB818B02146BDE8F08D514518DAB5F11A
:1053A000804F0DD0A5F1005CBCF1FF5C10D1B4F1D1
:1053B000000C0DDB18B06146BDE8F04D00F004BCF8
:1053C000234618B00246BDE8F04D1946FBF72BB84E
:1053D000060024F0004C3BD1D9B1514533D1002C0B
:1053E00006DD002DA1BF0020514618B0BDE8F08DAC
:1053F000002C01DD002D1BDB002C13DA002D11DB4E
:10540000012A4FF0000014BF78497C4918B0BDE86C
:10541000F08D022A18BF002C0AD0012A08D1002CD6
:1054200006DA0AE0002CB8BF002D11DA012A04D0F8
:10543000002018B00146BDE8F08D18B000204FF0F4
:105440000041BDE8F08DA1F14050B0F17F601AD06D
:10545000012000EBE47050EA020421D0624C521E9D
:105460004FF0000B104304BF4FF0000B644C654835
:1054700083427CDD644A654893421FDD884217DB26
:10548000002D25DB37E0002C00DA4AB1022A0CBFE0
:1054900001204FF0FF3018B0BDE8F04DFBF7DAB84F
:1054A0000120FFF72DFA18B0BDE8F04DFFF702BA62
:1054B0004D4A8A4202DC002D0ADC1CE0814202DAFD
:1054C000002D18DA04E0484B994220DD002D12DD52
:1054D0000220FFF715FAFFF7F3F905460E46002202
:1054E000534658462146FAF79EFF18B066F31E0150
:1054F0002846BDE8F08D0220FFF702FAFFF7E8F931
:105500000A46214618B062F31E01BDE8F08D002264
:1055100030466146FAF781FF80460E466FF0010281
:10552000FBF7C1F94FF05532394BFAF779FF424694
:105530003346FAF778FF0022364BFAF771FF8246BE
:1055400042463346049110461946FAF76CFF52461C
:10555000049BFAF768FF8A4600904FF0C0422E4B3A
:1055600040463146FAF75FFF2C4A2B4B00E027E01C
:10557000CDE9060151460098FAF755FF82460191A0
:10558000274A284B40463146FAF74DFF5246019BC9
:10559000FAF743FF82460B4602460591DDE9060114
:1055A000FAF79AFEDDE90623002688463046FAF728
:1055B00034FF5246059BFAF733FF024600F07EB9EE
:1055C0000020B1F5801F07DA352230466146FBF72F
:1055D0006AF906466FF0340000EB215024E0000029
:1055E000FFFF1F00FFFF0F000000F03F0000F07FF3
:1055F0000000404301FCFFFF620900000000F0FFD3
:105600000000F0BF0000E0410000F043FFFFEF3F6B
:105610005555D53F0000E03F4715F73FFE822B650B
:1056200044DF5DF80BAE543EA0F2FF300190C1F3B1
:10563000130040F07F6141F040510291FE498842E1
:10564000D8BF002004DDFD498142C8BF012001DD33
:105650000D9008E000200D900198401C01900298E8
:10566000A0F5801002900299F54878440B910D99AD
:1056700000EBC100D0E900230F9330460A920B994A
:10568000FAF7CBFECDE90601DDE90A2130460F9B92
:10569000FAF722FE02460B460020EA49FAF735FFE8
:1056A000059102460B460090DDE90601FAF7BBFEC4
:1056B0001490E5488A464FF0000878440299006843
:1056C00012904FF0005040EA61010D980F9B01EBE2
:1056D000804000F5002109910A9A1298FAF79DFE80
:1056E00032460B9BFAF79CFE42465346FAF79BFE66
:1056F0000646029140465146099B129AFAF793FEDC
:10570000DDE90623FAF78CFE3246029BFAF785FEA6
:10571000059B009AFAF787FE0091149A049053466D
:1057200010461946FAF77FFE06460246C7480B4662
:10573000029106217844FFF75DF8CDE90510029B40
:10574000324610461946FAF76EFEDDE90532FAF7E1
:105750006AFE05910646534640461946149AFAF7E2
:10576000BBFD009B049AFAF75EFE3246059BFAF7F2
:10577000B3FDCDE905104246534610461946FAF7E7
:1057800052FE0022B24B02910A90FAF7A5FDDDE924
:105790000532FAF7A1FD0E464246AD4B4046FAF7F8
:1057A0003CFE029B0A9AFAF738FEDDE90532FAF769
:1057B00037FE424602910A90334610465146FAF7A8
:1057C00032FECDE906015346149A02990A98FAF777
:1057D0002AFE8A4602903346424600990498FAF718
:1057E00022FE5346029AFAF777FD82460B4602469E
:1057F0000591DDE90601FAF76FFDDDE906230020DA
:1058000088460646FAF709FE5246059BFAF708FE57
:10581000824609914FF060428E4B30464146FAF77E
:1058200002FE049006918C4A8A4B50460999FAF779
:10583000FAFD82460291894A894B30464146FAF781
:10584000F2FD5246029BFAF747FD864B7B440D9AC8
:1058500003EBC203D3E90023FAF73EFD0E90079154
:105860000198FAF7F7FE0591DDE9061382460E9AD4
:105870000498FAF731FD7C4A7A440D9B02EBC3038E
:10588000D3E9002300930292FAF726FD5246059BC6
:10589000FAF722FD0026884652463046059BFAF765
:1058A000BCFD009B029AFAF7B8FD069B049AFAF732
:1058B000B4FD079B0E9AFAF7B3FD024600200B4693
:1058C000029038462946FAF7AEFD824601912B46F2
:1058D00038461946029AFAF7A0FD32464346FAF7CF
:1058E000A2FD5246019BFAF7F7FC07468A4632466C
:1058F000434629460298FAF796FD05460E463A4673
:105900005346FAF7E9FC594A8846914221DBA8EB55
:10591000020353EA000210D12A463346FAF77DFD0E
:10592000CDE90401524A534B38465146FAF7D4FCAC
:10593000DDE90423FAF7E6FF21D20220FEF7E0FFBB
:10594000FEF7BEFF0A46214618B062F31E01BDE80D
:10595000F08D494B28F000429A4210D3474A08EB99
:10596000020353EA00027FF4C6AD2A463346FAF733
:1059700054FD3A465346FAF7C5FF7FF6BCAD002208
:10598000019228F000403E493E4A01EB20518242FC
:1059900023DA481C4FF4801121FA00F040443A4ABF
:1059A000C0F30A517A44394BA1F2FF31CB4020EACF
:1059B0000303C0F3130040F48010C1F11401C84088
:1059C00012680190B8F1000FBCBF40420190284618
:1059D0003146FAF722FD05460E462A46334638463A
:1059E0005146FAF779FC4FF000084246284B4046F2
:1059F0000591FAF718FDCDE90601264A264B4046E7
:105A00000599FAF710FD009102902A463346404668
:105A10000599FAF702FD3A465346FAF701FD1F4A87
:105A20001F4BFAF700FD009B029AFAF755FC074658
:105A3000884602460B4635E08E9803007AB60B0086
:105A4000AA0500000000F03FE2050000100500007C
:105A50000000084009C7EE3FFD033ADCF5015B1486
:105A6000E02F3EBEE8030000AC03000000009040C1
:105A7000FE822B654715973C00CC904000346F3F69
:105A800001FCFFFF0000E03FF8020000FFFF0F00F5
:105A9000432EE63F396CA80C615C20BEEF39FAFE5C
:105AA000422EE63FDDE90601FAF716FCDDE90623A2
:105AB00005460E46FAF7B1FC3A464346FAF7B0FC03
:105AC0000F462A463346009010461946FAF7ABFCBB
:105AD000824602462E4888460B4605217844FEF74A
